:020000040800F2
:100000001025002089010008C5010008C70100086B
:10001000C9010008CB010008CD0100080000000064
:10002000000000000000000000000000CF010008F8
:10003000D101000800000000D3010008D50100082C
:10004000D7010008D7010008D7010008D701000830
:10005000D7010008D7010008D7010008D701000820
:10006000D7010008D7010008D7010008D701000810
:10007000D7010008D7010008D7010008D701000800
:10008000D7010008D7010008D7010008D7010008F0
:10009000D7010008D7010008D7010008D7010008E0
:1000A000D7010008D7010008D7010008D7010008D0
:1000B000D5020008D7010008D7010008D7010008C1
:1000C000D7010008D7010008D7010008D7010008B0
:1000D000D7010008D7010008D7010008D7010008A0
:1000E000D7010008D7010008D7010008D701000890
:1000F000D7010008D7010008D7010008D701000880
:10010000D7010008D7010008D7010008D70100086F
:10011000D7010008D7010008D7010008D70100085F
:10012000D7010008D7010008D7010008D70100084F
:10013000D7010008D7010008D7010008D70100083F
:10014000D7010008D7010008D7010008D70100082F
:10015000D7010008D7010008D7010008D70100081F
:10016000D7010008D7010008D7010008D70100080F
:10017000D7010008D7010008D701000800000000DF
:10018000D7010008D701000816481749174B9942B4
:100190003CBF50F8042B41F8042BF8D314494FF01E
:1001A00000028B4238BF43F8042BFAD3DFF8440037
:1001B000016841F470010160BFF34F8FBFF36F8F8F
:1001C0000D480047FEE7FEE7FEE7FEE7FEE7FEE735
:1001D000FEE7FEE7FEE7FEE708480949094A0A4B41
:1001E0007047000054050008000000200C1000209B
:1001F0001025002088ED00E0950200081010002076
:1002000010250020101500201015002070477047A1
:1002100070470000184A116841F000511160174AF8
:10022000116821F0010121F480311160144A116834
:1002300021F4E0211160114A116841F4601141F488
:10024000802141F4803111600E4A116841F00101B2
:1002500011604FF09042116841F4406111607047A5
:10026000094A116811F0004FFBD1084A1060084A92
:100270004FF00201116070475810024000740040B6
:100280003C7400404C100240347400401474004030
:10029000047400404FF4167000F030F8274A1060E4
:1002A000FFF7B8FF00F05CF84FF0320000F075F88F
:1002B00000F092F800F016F900F01EF920490860ED
:1002C00000F006F900F018F900F018F81B4A106069
:1002D000F0E7FEE700B51B481C4900F01FF8FFF7E8
:1002E000BFFF1649174800F012F85DF804EB1A4AF0
:1002F0006FF001011160BFF34F8F704744F620612A
:100300004FEA00104FEA8020B0FBF1F0704702681E
:100310000B68134423F480430360704702684FEA7C
:1003200012124FEA420211440888DFF81480D8F80C
:10033000009000FB09F04FEA1030704704000020E5
:100340000800002000000020000000000C00002039
:10035000000000000000000010000040000000004D
:10036000174A116841F001011160164A4FF003016C
:100370001160154A40F2E73111604FF08042116878
:1003800041F001011160114A116841F00101116051
:100390000F4A4FF08051116070470C4A116821F0EC
:1003A00001011160084AA0F101001060094A80EAC9
:1003B00000001060054A116841F0010111607047AA
:1003C00058100240280000402C0000400C00004063
:1003D00000E100E024000040504A116841F48071BF
:1003E0001160116811F4806FFBD04D4A116841F023
:1003F000010111604FF09042116841F00F0111604E
:10040000484A116841F0010141F002011160444A7B
:10041000116841F400511160434A116841F40051E0
:1004200011604FF00A000138FDD121F40051116034
:100430003E4A116821F0010111603D4A116841F402
:10044000807111603B4A116841F4800121F4701100
:1004500021F4403141F4803121F01F0141F00601C7
:100460001160324A116821F00051116041F0805151
:1004700011604FF40C710139FDD12F4A116821F040
:10048000180121F0200111602C4A116821F020018F
:1004900021F0400111602A4A116821F4603141F4D1
:1004A000C03121F4E01141F440211160224A116869
:1004B00021F4005121F4406111601C4A116841F09F
:1004C000010111601F4A116811F0010FFBD0704744
:1004D0001D4A116821F00F0121F4F86141F4A07167
:1004E00011607047184A116821F00F0121F4F8617A
:1004F00041F4C071116070470C490A6822F0004253
:1005000022F03F0242F004020A6010490A6812F029
:10051000040F00D1F9E70E49086870470010024047
:100520004C1002402C0000482C10024008000450DF
:1005300004000140080304500C000450B0000450B3
:100540001400045000000450300004500003045014
:100550004000045000000000A00000000000000067
:10056000FF070C081908250832083E084B085708F1
:10057000640870087D088A089608A308AF08BC08BC
:10058000C808D508E108EE08FA08070913091F0989
:100590002C093809450951095E096A097609830958
:1005A0008F099B09A809B409C009CC09D909E50933
:1005B000F109FD09090A150A220A2E0A3A0A460A11
:1005C000520A5E0A6A0A760A820A8E0A9A0AA50AFC
:1005D000B10ABD0AC90AD50AE00AEC0AF80A030BF7
:1005E0000F0B1B0B260B320B3D0B490B540B600BF7
:1005F0006B0B760B820B8D0B980BA30BAF0BBA0B0F
:10060000C50BD00BDB0BE60BF10BFC0B070C110C35
:100610001C0C270C320C3C0C470C520C5C0C670C6D
:10062000710C7C0C860C900C9B0CA50CAF0CB90CBF
:10063000C30CCD0CD70CE10CEB0CF50CFF0C090D29
:10064000130D1C0D260D2F0D390D430D4C0D550DA1
:100650005F0D680D710D7A0D840D8D0D960D9F0D3A
:10066000A70DB00DB90DC20DCB0DD30DDC0DE40DF2
:10067000ED0DF50DFE0D060E0E0E160E1E0E260EBF
:100680002E0E360E3E0E460E4E0E560E5D0E650EAC
:100690006C0E740E7B0E820E8A0E910E980E9F0EBB
:1006A000A60EAD0EB40EBB0EC20EC80ECF0ED50EEA
:1006B000DC0EE20EE90EEF0EF50EFB0E020F080F38
:1006C0000D0F130F190F1F0F250F2A0F300F350FA6
:1006D0003B0F400F450F4A0F500F550F5A0F5F0F3A
:1006E000630F680F6D0F720F760F7B0F7F0F830FF5
:1006F000880F8C0F900F940F980F9C0FA00FA30FD3
:10070000A70FAB0FAE0FB20FB50FB80FBC0FBF0FD7
:10071000C20FC50FC80FCB0FCE0FD00FD30FD50F01
:10072000D80FDA0FDD0FDF0FE10FE30FE50FE70F53
:10073000E90FEB0FED0FEE0FF00FF10FF30FF40FCA
:10074000F50FF70FF80FF90FFA0FFB0FFB0FFC0F68
:10075000FD0FFD0FFE0FFE0FFF0FFF0FFF0FFF0F2F
:10076000FF0FFF0FFF0FFF0FFF0FFE0FFE0FFD0F1D
:10077000FD0FFC0FFB0FFB0FFA0FF90FF80FF70F30
:10078000F50FF40FF30FF10FF00FEE0FED0FEB0F6E
:10079000E90FE70FE50FE30FE10FDF0FDD0FDA0FD2
:1007A000D80FD50FD30FD00FCE0FCB0FC80FC50F5B
:1007B000C20FBF0FBC0FB80FB50FB20FAE0FAB0F0C
:1007C000A70FA30FA00F9C0F980F940F900F8C0FE3
:1007D000880F830F7F0F7B0F760F720F6D0F680FDF
:1007E000630F5F0F5A0F550F500F4A0F450F400F01
:1007F0003B0F350F300F2A0F250F1F0F190F130F47
:100800000D0F080F020FFB0EF50EEF0EE90EE20EB4
:10081000DC0ED50ECF0EC80EC20EBB0EB40EAD0E42
:10082000A60E9F0E980E910E8A0E820E7B0E740EEF
:100830006C0E650E5D0E560E4E0E460E3E0E360EBC
:100840002E0E260E1E0E160E0E0E060EFE0DF50DAB
:10085000ED0DE40DDC0DD30DCB0DC20DB90DB00DBA
:10086000A70D9F0D960D8D0D840D7A0D710D680DE0
:100870005F0D550D4C0D430D390D2F0D260D1C0D23
:10088000130D090DFF0CF50CEB0CE10CD70CCD0C86
:10089000C30CB90CAF0CA50C9B0C900C860C7C0CFB
:1008A000710C670C5C0C520C470C3C0C320C270C86
:1008B0001C0C110C070CFC0BF10BE60BDB0BD00B2B
:1008C000C50BBA0BAF0BA30B980B8D0B820B760BE2
:1008D0006B0B600B540B490B3D0B320B260B1B0BA8
:1008E0000F0B030BF80AEC0AE00AD50AC90ABD0A85
:1008F000B10AA50A9A0A8E0A820A760A6A0A5E0A6A
:10090000520A460A3A0A2E0A220A150A090AFD095B
:10091000F109E509D909CC09C009B409A8099B095D
:100920008F09830976096A095E0951094509380961
:100930002C091F0913090709FA08EE08E108D50870
:10094000C808BC08AF08A30896088A087D08700884
:10095000640857084B083E083208250819080C0897
:10096000FF07F307E607DA07CD07C107B407A707B4
:100970009B078E078207750769075C0750074307C7
:1009800037072A071E0711070507F806EC06DF06DA
:10099000D306C606BA06AE06A106950689067C06EB
:1009A0007006640657064B063F06320626061A06F0
:1009B0000E060206F505E905DD05D105C505B905F3
:1009C000AD05A105950589057D05710565055905E7
:1009D0004D05420536052A051E0513050705FB04CE
:1009E000F004E404D904CD04C204B604AB049F04AB
:1009F000940488047D04720467045B045004450475
:100A00003A042F04240419040E040304F803ED032C
:100A1000E303D803CD03C203B803AD03A3039803D4
:100A20008E03830379036E0364035A035003460362
:100A30003B03310327031D0313030A030003F602DC
:100A4000EC02E302D902CF02C602BC02B302A90241
:100A5000A00297028E0284027B0272026902600287
:100A600057024E0246023D0234022C0223021A02B1
:100A700012020A020102F901F101E901E001D801C3
:100A8000D001C801C101B901B101A901A2019A01B6
:100A900093018B0184017C0175016E016701600186
:100AA000590152014B0144013D0137013001290137
:100AB00023011C01160110010A010301FD00F700CA
:100AC000F100EB00E600E000DA00D500CF00CA003C
:100AD000C400BF00BA00B400AF00AA00A500A00087
:100AE0009B00970092008D008900840080007B00AD
:100AF000770073006F006B00670063005F005B00AE
:100B00005800540051004D004A0046004300400088
:100B10003D003A003700340031002F002C0029003E
:100B200027002400220020001E001C001A001800CC
:100B300016001400120010000F000D000C000B0036
:100B40000900080007000600050004000300030078
:100B50000200010001000000000000000000000091
:100B60000000000000000000000000000100010083
:100B7000020003000300040005000600070008004F
:100B800009000B000C000D000F00100012001400F3
:100B9000160018001A001C001E002000220024006D
:100BA000270029002C002F003100340037003A00C4
:100BB0003D004000430046004A004D0051005400F3
:100BC00058005B005F00630067006B006F007300FC
:100BD00077007B008000840089008D0092009700E0
:100BE0009B00A000A500AA00AF00B400BA00BF009F
:100BF000C400CA00CF00D500DA00E000E600EB0038
:100C0000F100F700FD0003010A01100116011C01AB
:100C100023012901300137013D0144014B015201FB
:100C20005901600167016E0175017C0184018B012E
:100C300093019A01A201A901B101B901C101C80141
:100C4000D001D801E001E901F101F90101020A0234
:100C500012021A0223022C0234023D0246024E0204
:100C600057026002690272027B0284028E029702BE
:100C7000A002A902B302BC02C602CF02D902E3025B
:100C8000EC02F60200030A0313031D0327033103DA
:100C90003B03460350035A0364036E037903830343
:100CA0008E039803A303AD03B803C203CD03D80397
:100CB000E303ED03F80303040E04190424042F04D2
:100CC0003A04450450045B04670472047D048804FC
:100CD00094049F04AB04B604C204CD04D904E40414
:100CE000F004FB04070513051E052A053605420519
:100CF0004D055905650571057D0589059505A10514
:100D0000AD05B905C505D105DD05E905F505020601
:100D10000E061A06260632063F064B0657066406DE
:100D200070067C0689069506A106AE06BA06C606BA
:100D3000D306DF06EC06F806050711071E072A078B
:100D40003707430750075C076907750782078E0757
:100D50009B07A707B407C107CD07DA07E607F30724
:100D60000000030007000B000F00130017001B001A
:100D70001F00230027002B002F00330037003B000B
:100D80003F00430047004B004F00530057005B00FB
:100D90005F00630067006B006F00730077007B00EB
:100DA0007F00830087008B008F00930097009B00DB
:100DB0009F00A300A700AB00AF00B300B700BB00CB
:100DC000BF00C300C700CB00CF00D300D700DB00BB
:100DD000DF00E300E700EB00EF00F300F700FB00AB
:100DE000FF00030107010B010F01130117011B0194
:100DF0001F01230127012B012F01330137013B0183
:100E00003F01430147014B014F01530157015B0172
:100E10005F01630167016B016F01730177017B0162
:100E20007F01830187018B018F01930197019B0152
:100E30009F01A301A701AB01AF01B301B701BB0142
:100E4000BF01C301C701CB01CF01D301D701DB0132
:100E5000DF01E301E701EB01EF01F301F701FB0122
:100E6000FF01030207020B020F02130217021B020B
:100E70001F02230227022B022F02330237023B02FA
:100E80003F02430247024B024F02530257025B02EA
:100E90005F02630267026B026F02730277027B02DA
:100EA0007F02830287028B028F02930297029B02CA
:100EB0009F02A302A702AB02AF02B302B702BB02BA
:100EC000BF02C302C702CB02CF02D302D702DB02AA
:100ED000DF02E302E702EB02EF02F302F702FB029A
:100EE000FF02030307030B030F03130317031B0383
:100EF0001F03230327032B032F03330337033B0372
:100F00003F03430347034B034F03530357035B0361
:100F10005F03630367036B036F03730377037B0351
:100F20007F03830387038B038F03930397039B0341
:100F30009F03A303A703AB03AF03B303B703BB0331
:100F4000BF03C303C703CB03CF03D303D703DB0321
:100F5000DF03E303E703EB03EF03F303F703FB0311
:100F6000FF03030407040B040F04130417041B04FA
:100F70001F04230427042B042F04330437043B04E9
:100F80003F04430447044B044F04530457045B04D9
:100F90005F04630467046B046F04730477047B04C9
:100FA0007F04830487048B048F04930497049B04B9
:100FB0009F04A304A704AB04AF04B304B704BB04A9
:100FC000BF04C304C704CB04CF04D304D704DB0499
:100FD000DF04E304E704EB04EF04F304F704FB0489
:100FE000FF04030507050B050F05130517051B0572
:100FF0001F05230527052B052F05330537053B0561
:101000003F05430547054B054F05530557055B0550
:101010005F05630567056B056F05730577057B0540
:101020007F05830587058B058F05930597059B0530
:101030009F05A305A705AB05AF05B305B705BB0520
:10104000BF05C305C705CB05CF05D305D705DB0510
:10105000DF05E305E705EB05EF05F305F705FB0500
:10106000FF05030607060B060F06130617061B06E9
:101070001F06230627062B062F06330637063B06D8
:101080003F06430647064B064F06530657065B06C8
:101090005F06630667066B066F06730677067B06B8
:1010A0007F06830687068B068F06930697069B06A8
:1010B0009F06A306A706AB06AF06B306B706BB0698
:1010C000BF06C306C706CB06CF06D306D706DB0688
:1010D000DF06E306E706EB06EF06F306F706FB0678
:1010E000FF06030707070B070F07130717071B0761
:1010F0001F07230727072B072F07330737073B0750
:101100003F07430747074B074F07530757075B073F
:101110005F07630767076B076F07730777077B072F
:101120007F07830787078B078F07930797079B071F
:101130009F07A307A707AB07AF07B307B707BB070F
:10114000BF07C307C707CB07CF07D307D707DB07FF
:10115000DF07E307E707EB07EF07F307F707FB07EF
:10116000FF07030807080B080F08130817081B08D8
:101170001F08230827082B082F08330837083B08C7
:101180003F08430847084B084F08530857085B08B7
:101190005F08630867086B086F08730877087B08A7
:1011A0007F08830887088B088F08930897089B0897
:1011B0009F08A308A708AB08AF08B308B708BB0887
:1011C000BF08C308C708CB08CF08D308D708DB0877
:1011D000DF08E308E708EB08EF08F308F708FB0867
:1011E000FF08030907090B090F09130917091B0950
:1011F0001F09230927092B092F09330937093B093F
:101200003F09430947094B094F09530957095B092E
:101210005F09630967096B096F09730977097B091E
:101220007F09830987098B098F09930997099B090E
:101230009F09A309A709AB09AF09B309B709BB09FE
:10124000BF09C309C709CB09CF09D309D709DB09EE
:10125000DF09E309E709EB09EF09F309F709FB09DE
:10126000FF09030A070A0B0A0F0A130A170A1B0AC7
:101270001F0A230A270A2B0A2F0A330A370A3B0AB6
:101280003F0A430A470A4B0A4F0A530A570A5B0AA6
:101290005F0A630A670A6B0A6F0A730A770A7B0A96
:1012A0007F0A830A870A8B0A8F0A930A970A9B0A86
:1012B0009F0AA30AA70AAB0AAF0AB30AB70ABB0A76
:1012C000BF0AC30AC70ACB0ACF0AD30AD70ADB0A66
:1012D000DF0AE30AE70AEB0AEF0AF30AF70AFB0A56
:1012E000FF0A030B070B0B0B0F0B130B170B1B0B3F
:1012F0001F0B230B270B2B0B2F0B330B370B3B0B2E
:101300003F0B430B470B4B0B4F0B530B570B5B0B1D
:101310005F0B630B670B6B0B6F0B730B770B7B0B0D
:101320007F0B830B870B8B0B8F0B930B970B9B0BFD
:101330009F0BA30BA70BAB0BAF0BB30BB70BBB0BED
:10134000BF0BC30BC70BCB0BCF0BD30BD70BDB0BDD
:10135000DF0BE30BE70BEB0BEF0BF30BF70BFB0BCD
:10136000FF0B030C070C0B0C0F0C130C170C1B0CB6
:101370001F0C230C270C2B0C2F0C330C370C3B0CA5
:101380003F0C430C470C4B0C4F0C530C570C5B0C95
:101390005F0C630C670C6B0C6F0C730C770C7B0C85
:1013A0007F0C830C870C8B0C8F0C930C970C9B0C75
:1013B0009F0CA30CA70CAB0CAF0CB30CB70CBB0C65
:1013C000BF0CC30CC70CCB0CCF0CD30CD70CDB0C55
:1013D000DF0CE30CE70CEB0CEF0CF30CF70CFB0C45
:1013E000FF0C030D070D0B0D0F0D130D170D1B0D2E
:1013F0001F0D230D270D2B0D2F0D330D370D3B0D1D
:101400003F0D430D470D4B0D4F0D530D570D5B0D0C
:101410005F0D630D670D6B0D6F0D730D770D7B0DFC
:101420007F0D830D870D8B0D8F0D930D970D9B0DEC
:101430009F0DA30DA70DAB0DAF0DB30DB70DBB0DDC
:10144000BF0DC30DC70DCB0DCF0DD30DD70DDB0DCC
:10145000DF0DE30DE70DEB0DEF0DF30DF70DFB0DBC
:10146000FF0D030E070E0B0E0F0E130E170E1B0EA5
:101470001F0E230E270E2B0E2F0E330E370E3B0E94
:101480003F0E430E470E4B0E4F0E530E570E5B0E84
:101490005F0E630E670E6B0E6F0E730E770E7B0E74
:1014A0007F0E830E870E8B0E8F0E930E970E9B0E64
:1014B0009F0EA30EA70EAB0EAF0EB30EB70EBB0E54
:1014C000BF0EC30EC70ECB0ECF0ED30ED70EDB0E44
:1014D000DF0EE30EE70EEB0EEF0EF30EF70EFB0E34
:1014E000FF0E030F070F0B0F0F0F130F170F1B0F1D
:1014F0001F0F230F270F2B0F2F0F330F370F3B0F0C
:101500003F0F430F470F4B0F4F0F530F570F5B0FFB
:101510005F0F630F670F6B0F6F0F730F770F7B0FEB
:101520007F0F830F870F8B0F8F0F930F970F9B0FDB
:101530009F0FA30FA70FAB0FAF0FB30FB70FBB0FCB
:10154000BF0FC30FC70FCB0FCF0FD30FD70FDB0FBB
:10155000DF0FE30FE70FEB0FEF0FF30FF70FFB0FAB
:040000050800029558
:00000001FF
