:020000040800F2
:100000000015002089010008C5010008C70100088B
:10001000C9010008CB010008CD0100080000000064
:10002000000000000000000000000000CF010008F8
:10003000D101000800000000D3010008D50100082C
:10004000D7010008D7010008D7010008D701000830
:10005000D7010008D7010008D7010008D701000820
:10006000D7010008D7010008D7010008D701000810
:10007000D7010008D7010008D7010008D701000800
:10008000D7010008D7010008D7010008D7010008F0
:10009000D7010008D7010008D7010008D7010008E0
:1000A000D7010008D7010008D7010008D7010008D0
:1000B000D7010008D7010008D7010008D7010008C0
:1000C000D7010008D7010008D7010008D7010008B0
:1000D000D7010008D7010008D7010008D7010008A0
:1000E000D7010008D7010008D7010008D701000890
:1000F000D7010008D7010008D7010008D701000880
:10010000D7010008D7010008D7010008D70100086F
:10011000D7010008D7010008D7010008D70100085F
:10012000D7010008D7010008D7010008D70100084F
:10013000D7010008D7010008D7010008D70100083F
:10014000D7010008D7010008D7010008D70100082F
:10015000D7010008D7010008D7010008D70100081F
:10016000D7010008D7010008D7010008D70100080F
:10017000D7010008D7010008D701000800000000DF
:10018000D7010008D701000816481749174B9942B4
:100190003CBF50F8042B41F8042BF8D314494FF01E
:1001A00000028B4238BF43F8042BFAD3DFF8440037
:1001B000016841F470010160BFF34F8FBFF36F8F8F
:1001C0000D480047FEE7FEE7FEE7FEE7FEE7FEE735
:1001D000FEE7FEE7FEE7FEE708480949094A0A4B41
:1001E00070470000AC020008000000200000002062
:1001F0000015002088ED00E0150200080000002036
:100200000015002000050020000500207047704701
:10021000704700001D48016841F0020101601C4860
:10022000016821F0300141F01001016019480168B6
:1002300021F0040101601848016841F004010160E7
:100240001248016841F0100101601448016821F46E
:10025000403141F4803101601148016821F480711E
:1002600001601048016841F4807101600E4A013A52
:10027000002AFCD10848016881F0040101600948A6
:10028000016881F480710160FEE700004C100240BB
:10029000000400480404004814040048001000480A
:0C02A0000410004814100048A0BB0D0022
:0400000508000215D8
:00000001FF
