:020000040800F2
:100000000015002089010008C5010008C70100088B
:10001000C9010008CB010008CD0100080000000064
:10002000000000000000000000000000CF010008F8
:10003000D101000800000000D3010008D50100082C
:10004000D7010008D7010008D7010008D701000830
:10005000D7010008D7010008D7010008D701000820
:10006000D7010008D7010008D7010008D701000810
:10007000D7010008D7010008D7010008D701000800
:10008000D7010008D7010008D7010008D7010008F0
:10009000D7010008D7010008D7010008D7010008E0
:1000A000D7010008D7010008D7010008D7010008D0
:1000B000D7010008D7010008D7010008D7010008C0
:1000C000D7010008D7010008D7010008D7010008B0
:1000D000D7010008D7010008D7010008D7010008A0
:1000E000D7010008D7010008D7010008D701000890
:1000F000D7010008D7010008D7010008D701000880
:10010000D7010008D7010008D7010008D70100086F
:10011000D7010008D7010008D7010008D70100085F
:10012000D7010008D7010008D7010008D70100084F
:10013000D7010008D7010008D7010008D70100083F
:10014000D7010008D7010008D7010008D70100082F
:10015000D7010008D7010008D7010008D70100081F
:10016000D7010008D7010008D7010008D70100080F
:10017000D7010008D7010008D701000800000000DF
:10018000D7010008D701000816481749174B9942B4
:100190003CBF50F8042B41F8042BF8D314494FF01E
:1001A00000028B4238BF43F8042BFAD3DFF8440037
:1001B000016841F470010160BFF34F8FBFF36F8F8F
:1001C0000D480047FEE7FEE7FEE7FEE7FEE7FEE735
:1001D000FEE7FEE7FEE7FEE708480949094A0A4B41
:1001E000704700008004000800000020000000208C
:1001F0000015002088ED00E0150200080000002036
:100200000015002000050020000500207047704701
:100210007047000000F038F84FF0000000F066F87A
:100220004FF03C09164800F061F800F022F8A9F1FF
:100230000109B9F1000FF5D14FF0000000F056F8B8
:1002400000F001F8E8E74FF03C094FF0000000B57E
:1002500000F04CF80B4800F049F800F00AF8B9F14A
:100260000109F7D14FF0000000F040F85DF804EB11
:1002700070474FF48040A0F101000028FBD1704787
:10028000FF0000E400000FE000B54FF0100000F0A8
:10029000B7F823490A6822F0000242F000020A601F
:1002A0001F484FF0806100F0B1F81D484FF08041C9
:1002B00000F0ACF85DF804EB70474FF00801194A04
:1002C00070B44FF400534FF000544FF400454FF01A
:1002D000004610F0800F0CBF1660156013601460AC
:1002E0004FEA40000139F4D170BC70474FF0200153
:1002F0000C4A70B44FF400534FF000544FF40045D3
:100300004FF0004610F0004F0CBF166015601360F0
:1003100014604FEA40000139F4D170BC704700000E
:1003200000100048181000482C4A116841F00101E3
:1003300011604FF09042116840F6FF4021EA000141
:100340001160274A116840F2554021EA00014FEA46
:10035000400041EA000111607047224A106800F035
:100360002F007047204A116841F0010111601F4AB7
:10037000116821F0070111601D4A116841F0010167
:1003800011601C4A116821F0010111601A4A1168BC
:1003900041F001011160194A4FF0400111607047AE
:1003A000114A116841F001011160104A116821F4ED
:1003B000E04111600E4A116841F0080111600D4AD8
:1003C000116821F0080111600B4A116841F0080121
:1003D00011600A4A4FF40071116070474C100240DE
:1003E0000C00004810000048601002400800014066
:1003F000080401400C0401400004014000E100E059
:100400001C4A116841EA0001116070474FF0000278
:100410001044026842EA01024FEA410122EA010265
:10042000026070471448016841F0040101607047A0
:100430001248016841F48071016070470E480168FC
:1004400021F00401016070470C48016821F48071BB
:10045000016070470848016881F00401016070473D
:100460000648016881F48071016070470138FDD150
:10047000704700004C10024014040048141000485B
:0400000508000215D8
:00000001FF
